:020000040800F2
:1000000000200020AD2800086526000867260008AB
:1000100000000000000000000000000000000000E0
:100020000000000000000000000000006926000839
:1000300000000000000000006B2600086D2600088C
:10004000FD28000800000000FD280008FD28000829
:10005000FD280008FD280008FD2800087526000876
:1000600000000000FD28000881260008FD28000887
:10007000FD280008FD280008FD28000800000000F9
:10008000FD280008FD28000800000000FD280008E9
:10009000FD280008FD280008FD280008FD280008AC
:1000A000FD280008FD280008FD280008912600080A
:1000B000FD28000800000000000000000000000013
:1000C00010B5064C2378002B07D1054B002B02D02E
:1000D000044800E000BF0123237010BD180A00206F
:1000E00000000000A4B40008044B10B5002B03D09E
:1000F0000349044800E000BF10BDC04600000000F6
:100100001C0A0020A4B40008002243088B4274D3C8
:1001100003098B425FD3030A8B4244D3030B8B4208
:1001200028D3030C8B420DD3FF22090212BA030C11
:100130008B4202D31212090265D0030B8B4219D3F2
:1001400000E0090AC30B8B4201D3CB03C01A524112
:10015000830B8B4201D38B03C01A5241430B8B425A
:1001600001D34B03C01A5241030B8B4201D30B0343
:10017000C01A5241C30A8B4201D3CB02C01A52416A
:10018000830A8B4201D38B02C01A5241430A8B422D
:1001900001D34B02C01A5241030A8B4201D30B0216
:1001A000C01A5241CDD2C3098B4201D3CB01C01A30
:1001B000524183098B4201D38B01C01A524143093A
:1001C0008B4201D34B01C01A524103098B4201D328
:1001D0000B01C01A5241C3088B4201D3CB00C01A95
:1001E000524183088B4201D38B00C01A524143080D
:1001F0008B4201D34B00C01A5241411A00D2014632
:10020000524110467047FFE701B5002000F006F8A4
:1002100002BDC0460029F7D076E770477047C04658
:1002200003460B437FD4002243088B4274D3030957
:100230008B425FD3030A8B4244D3030B8B4228D3F8
:10024000030C8B420DD3FF22090212BA030C8B421E
:1002500002D31212090265D0030B8B4219D300E0BE
:10026000090AC30B8B4201D3CB03C01A5241830B43
:100270008B4201D38B03C01A5241430B8B4201D3F3
:100280004B03C01A5241030B8B4201D30B03C01A1C
:100290005241C30A8B4201D3CB02C01A5241830A96
:1002A0008B4201D38B02C01A5241430A8B4201D3C5
:1002B0004B02C01A5241030A8B4201D30B02C01AEF
:1002C0005241CDD2C3098B4201D3CB01C01A524156
:1002D00083098B4201D38B01C01A524143098B42DF
:1002E00001D34B01C01A524103098B4201D30B01C8
:1002F000C01A5241C3088B4201D3CB00C01A5241ED
:1003000083088B4201D38B00C01A524143088B42B1
:1003100001D34B00C01A5241411A00D2014652414A
:10032000104670475DE0CA0F00D04942031000D369
:100330004042534000229C4603098B422DD3030ABE
:100340008B4212D3FC22890112BA030A8B420CD3CE
:10035000890192118B4208D3890192118B4204D3F7
:1003600089013AD0921100E08909C3098B4201D377
:10037000CB01C01A524183098B4201D38B01C01AB1
:10038000524143098B4201D34B01C01A5241030928
:100390008B4201D30B01C01A5241C3088B4201D3D7
:1003A000CB00C01A524183088B4201D38B00C01A84
:1003B0005241D9D243088B4201D34B00C01A52415B
:1003C000411A00D20146634652415B10104601D3E8
:1003D0004042002B00D54942704763465B1000D372
:1003E000404201B50020FFF719FF02BD0029F8D0F7
:1003F00016E770478446100062468C461900634633
:1004000000E0C0461FB500F0F9FF002801D400212C
:10041000C8421FBD10B500F049FF4042013010BD79
:1004200010B500F0EBFF002801DB002010BD01201B
:1004300010BDC04610B500F0E1FF002801DD00202E
:1004400010BD012010BDC04610B500F071FF00289E
:1004500001DC002010BD012010BDC04610B500F029
:1004600067FF002801DA002010BD012010BDC04642
:10047000002B11D1002A0FD1002900D1002802D071
:100480000021C943080007B4024802A140180290A5
:1004900003BDC04689FDFFFF03B4684601B502985D
:1004A00000F006F8019B9E4602B00CBC7047C046A7
:1004B000F0B557464E464546DE46E0B504000D0011
:1004C0009246994683B08B4230D82DD0494650464B
:1004D00001F0BEFE29000600200001F0B9FE331A2B
:1004E0009846203B9B4633D45A4653469340424657
:1004F0001F00534693401E00AF423AD8AF4200D18E
:1005000078E05B46A41BBD41002B00DA75E00022B9
:1005100000230092019301235A4693400193012343
:1005200042469340009328E08242CFD90022002324
:10053000009201930C9B002B01D01C605D60009821
:10054000019903B0F0BCBB46B246A946A046F0BD37
:10055000424620239B1A5246DA40414613004A463F
:100560008A40170042461F43534693401E00AF4245
:10057000C4D900220023009201934346002BD9D016
:10058000FB0772081A4346467B080EE0AB4201D1D6
:10059000A2420CD8A41A9D41012024196D410021CA
:1005A000013E24184D41002E06D0AB42EED9013E4B
:1005B00024196D41002EF8D1009801995B4600196D
:1005C0006941002B24DB2B005A464446D3402A00C5
:1005D000E2401C005B461500002B2ADB26009E40F3
:1005E000330026004746BE403200801A99410090F1
:1005F00001919FE7A342BCD883E742462023002114
:100600009B1A0022009101920122DA40019286E7B2
:10061000424620239B1A2A0046469A402300F34074
:10062000444613432A00E2401C005B461500002BA1
:10063000D4DA42462F002023260097409B1ADE4042
:100640003B003343CDE7C046F0B54F464646D6465D
:100650000D000400C0B51F0011002803620F400AFE
:1006600010437A00520DE3003C039146640AFA0FEE
:100670004F0F6E0027439246B846760DED0FC90026
:10068000954200D199E04C46341BA446002C00DC76
:100690007CE04A46002A00D1B8E0C54A964200D123
:1006A0001CE180223C0012041443A0466246382A12
:1006B00000DD61E11F2A00DDCCE164462022121B2F
:1006C000444694400F00A14664469140E7404C46A2
:1006D0004A1E91413C43424621436446E240801A0F
:1006E0005C1AA3429B415F42C71B3B0200D4D0E08F
:1006F0007F027F0A002F00D1FFE0380001F08AFD61
:1007000001000839202322005B1A8F40DA408C4018
:100710001743B14200DAFFE0891B4B1C1F2B00DDA1
:10072000A8E020223900D21A200094409140D840FD
:10073000621E9441DF40002601430C43630709D049
:100740000F232340042B05D0231DA342A441644260
:100750003F191C003B0200D49EE0954B01369E429F
:1007600000D1B7E0934AE40817407B0771057F0288
:1007700023433F0B4A0D12053A43ED072A43180065
:100780001100E0BCBA46B146A846F0BD002C4BD0E3
:100790004C46A41BA446002E00D023E104001C43B9
:1007A00000D1AFE16246541E012A00D115E2804D0E
:1007B000AC4500D1C8E1A4461BE14A46B21A9446B2
:1007C000002A00DCACE04A46002A43D0784A964230
:1007D00000D1AFE180223C0012041443A0466246DF
:1007E000382A67DC1F2A00DC5FE14746203AD74001
:1007F0006246202A05D064464022121B444694409B
:1008000021434A1E91410C003C4357E03A000A4301
:1008100000D105E12200013A012C00D182E1644CB3
:10082000A4455BD0944641E7634C771C274200D037
:10083000C4E004001C43002E00D069E1002C00D16C
:10084000BFE144460C4300D0D0E14207DB0813432C
:10085000C00829E03A000A4300D170E162466446CC
:10086000013A012C00D1E0E0514CA44500D161E1F6
:100870009446B4E73A001F39CA401100202B03D038
:100880004022D31A9F403C43631E9C410027002610
:100890000C43630700D053E7B446E4087B072343C7
:1008A000F808434A94451DD06246070352053F0BA2
:1008B000520D60E744460C43621E9441E4189C428A
:1008C0009B415F423F183B02E3D5394B01369E42C4
:1008D00000D0B5E03200002700234CE74207DB08D8
:1008E0001343C0081A00024300D1E1E180273F030F
:1008F00007433F032E4A3F0B3DE7200001F08AFCEF
:10090000010018311F2900DCFCE60838844027006C
:100910000024B14200DBFFE6264A761A17400DE7B5
:10092000002A2FD04A46921B9446002E00D1ADE0FB
:100930001F4A914500D10FE1802212041043624604
:10094000382A00DD0FE11F2A00DD80E16446202205
:100950001E00121B6746040093409440FE405A1E3E
:100960009341F84034431C43804464188C42BF4197
:100970007F424E464744A6E742460A4311004A1EBC
:100980009141ADE60C4C721C224200D0A1E0020065
:100990001A43002E00D0FAE0002A00D145E13A00C7
:1009A0000A4300D046E14207DB081343C0087BE757
:1009B000FF070000FFFF7FFFFE07000047465C1AAD
:1009C000C21BA342BF417F42B94617004A46BF1A25
:1009D0003A0200D58DE023003B4300D08AE6002098
:1009E000002561E7B44CA14500D1ADE0802424048A
:1009F00020436446382C3DDC62461F2C00DDB7E006
:100A000020251E002D1B0400AB40AC40D640D0403A
:100A100042465D1EAB413443121A904623432CE0FC
:100A20004207DB081343C0083BE75C189C429B412C
:100A300040445B42C71801263B0200D429E7022646
:100A40009E4A63081740012214401C43FB071C43C5
:100A50007F0873E64446203AD4406246202A05D0F7
:100A600067464022D21B4746974039434A1E914170
:100A7000214335E60343581E8341CC1AA142BF41AE
:100A800043467F4255464E46DF1B2EE602001A4380
:100A900000D1BDE062466446013A012C00D1E5E098
:100AA000854CA44558D0944649E764462022121B41
:100AB000444694400F00A14664469140E7404C46AE
:100AC0004A1E91413C4342460C436146CA4080184D
:100AD000F4E6794CA24200D1FDE6591899429B41B7
:100AE00040445F42C719FC07490816000C437F08C1
:100AF000CFE6CC1AA142BF4143467F42181A554661
:100B0000C71BF7E5C9087B0755460B43F808C8E63D
:100B1000002C00D081E043460B4315D180200025F6
:100B20000003E3E65C1AA3429B41C71B5B4201261C
:100B3000FF1ADAE54207DB081343C008D2E6420792
:100B4000DB081343C008ACE643464246C9085B07CE
:100B500055460B43D008C5E6434642465B07C908E5
:100B60000B43D008BEE603431C00631E9C41FCE619
:100B70000200203CE24014006246202A03D04025B7
:100B8000AD1AA8400343581E8341234375E7002A4A
:100B9000E2D03A000A43CDD04207DB08134380225B
:100BA000C0081203104206D0FC08144203D12000F2
:100BB000CB087A0713435A0FDB005207DB081343B5
:100BC00090E643460B4300D109E743464246C90835
:100BD0005B0755460B43D00866E6CC1AA142894113
:100BE0003F1A4942554601267F1A7EE542465C1A65
:100BF000871AA34292415242BF1A3A023DD5CC1AFB
:100C0000A1428941434649421F1A55467F1A95E53C
:100C10007B07C9080B43F80843E64446DB080C434E
:100C200030D142071343C0085CE67B07C9080B4379
:100C3000F80839E65C189C429B4140445B42C71867
:100C40003B0200D425E61D4B01261F4021E604008F
:100C5000203AD4406246202A04D040226646921BA5
:100C6000904003435A1E93411C437EE65C188C421D
:100C70008941404449424718DDE623003B4300D107
:100C8000ADE606E6440723438024C008240320423F
:100C900008D04246D608264204D155463000CB083B
:100CA00051070B435A0FDB00DB085207134319E6C9
:100CB0000023014A1F005EE5FF070000FFFF7FFFE2
:100CC000F0B557464E464546DE46E0B5814605003E
:100CD0000C03480092461F0085B0240B400DCE0F38
:100CE000002800D156E1D44B984200D172E16B0F3D
:100CF000E4001C4380231B0423439846CF4BED00A4
:100D00009B4600239946834400933C037B00504656
:100D1000240B5B0DFF0F002B00D11FE1C64A93424D
:100D200000D162E1C549420F8C46E40059461443A4
:100D3000802263441204CB1A14439B46C200002055
:100D400033007B409A464B460F2B27D8BC499B006B
:100D5000CB589F46B246009B022B16D0032B00D1E6
:100D60008EE2012B00D0D9E000230024002552465A
:100D70001B052343D20713432800190005B0F0BC1C
:100D8000BB46B246A946A046F0BD00240025AA4BAA
:100D9000EDE7BA46A04615000090DCE7444500D2D6
:100DA000C7E100D1C2E101235B429C462E004046D0
:100DB0000025E3442302140E1C431B0C9946230414
:100DC0001F0C1202494600920197FFF723FA020016
:100DD0007A430B04310C804619438A4207D9012318
:100DE0005B429C460919E0448C4200D807E2881A0D
:100DF0004946FFF70FFA09048C4631046646019A0A
:100E0000090C4243030031438A4204D90919013BCA
:100E10008C4200D8EDE1881A424612041A439046EB
:100E20004146009B0E041B0C1F000293009B360CD6
:100E30001B04190C0B007343120C7E4303915143A6
:100E40007A431F0CBC4676186644B14203D9802110
:100E500049028C466244310C8A1831041E04360C57
:100E60008E19904202D312D1B54210D24346591E78
:100E7000009B9C4665441F009D429B415B421B19A1
:100E8000C018844200D2A0E100D19BE18846AE1B8D
:100E9000B542AD41801A6D42401B844200D1D5E17C
:100EA0004946FFF7B7F9019A0B044243310C05009C
:100EB00019438A4200D96CE1881A4946FFF7AAF91A
:100EC000019A360442430904360C03000E43B24231
:100ED00000D953E10398B61A02002D041D43029F66
:100EE0002B041B0C5A437B439C46290C4843130C90
:100EF000844463447943984203D980204002844665
:100F00006144180C12041B04120C41189B188E42E9
:100F100000D2FFE000D1FAE001231D43494A5A44C0
:100F2000002A00DCAAE06B0700D03DE1ED08434653
:100F3000DB0106D54246444B1A4090468022D2003F
:100F40005A44424B9A4200DD1FE743465B071D436C
:100F5000434652055C02240B530D08E752462243D8
:100F600000D17BE0002C00D1FAE0200001F052F922
:100F700002000B3A1D2301009B1A52460839DA4041
:100F80008C40144352468A40314B58449B4683441C
:100F90000020D5E64B462343984644D0002C00D190
:100FA000CEE0200001F036F9010002000B391D23CC
:100FB0005B1A49461000D940083884400B004D4662
:100FC0002343984685402348831A9B46002399462D
:100FD00000939AE64B46234398461DD10823994631
:100FE000063B0025834600938FE65246224309D1F3
:100FF000022349461943184B89469C460024022087
:10100000E3449DE603234A461A43134B91469C460C
:1010100052460320E34493E60C239946093BA0463D
:101020008346009371E60423994600239B460133CF
:101030000025009369E6C046FF07000001FCFFFFA2
:10104000FCB40008FF030000FFFFFFFEFE070000E6
:10105000F30300000DFCFFFF01F8FFFF49460123E9
:1010600019438946002401206AE6002380249A4619
:1010700000258A4B24037AE601256D4201239B1A41
:10108000382B00DD70E61F2B00DCBFE01F2149423A
:101090008A1A4146D1400A00202B04D04146804B99
:1010A0005B4499400D436B1E9D4107232A431D005D
:1010B00000241540134200D1D4E00F210023114039
:1010C000042900D1CBE0111D9142924152429B185C
:1010D0000A00190200D4C2E001230024002546E6DC
:1010E000802341461B03194208D01C4206D11C43F1
:1010F0002403BA461500694B240B38E68024434686
:1011000024031C432403B246644B240B2FE6002B1C
:1011100000D103E7A619681EA64200D28DE08E42D8
:1011200000D2A3E000D1B3E00500F5E6AA4200D961
:1011300039E64346DE0758086B081E43ED0739E6DB
:10114000484601F067F801000200153120321C29E1
:1011500000DC2CE74B46083883400025984632E7F0
:1011600001F058F803001A00153220301C2A00DC68
:1011700000E75446083B00229C4005E73619013B36
:10118000B44200D9A6E6B24200D8A3E6831E3619BF
:10119000A0E60919013D8C4200D98DE68A4200D8AB
:1011A0008AE6851E091987E60F232B40042B00D100
:1011B000BCE605235B42AB429B4104355B42ED0834
:1011C0009844B4E6AF4200D960E6824204D800D029
:1011D0005CE6AE4200D859E602235B429C46009B87
:1011E000E0449C4665449D429B415B421B19C018EC
:1011F0004DE68A4200D80EE6831E09190BE68A42A4
:1012000000D8F4E5831E98460919F0E52549280021
:1012100059448D4042468A40691E8D414146D8401E
:10122000D94002432A430B00510700D151E70F2157
:101230001140042900D046E74BE705008E4200D05C
:101240006AE6009A934200D066E667E6164A5A4478
:10125000002A00DC10E701230025984467E65D07BB
:101260005B021C0BD2080023154380E50098023D69
:1012700042008242BF417F423C1936190092DDE7AD
:101280008024434624031C432403044B240B6EE5B3
:10129000009A9A42EAD30500D3E7C046FF07000050
:1012A0003E0400001E040000FF030000F0B54E469F
:1012B0004546DE4657469046E0B517001A03120B26
:1012C0000500844619480E034C0091465A00DB0F76
:1012D0009B46360B640DC90F520D844219D08242D1
:1012E00010D0012094420ED14E450CD10120C445AE
:1012F00009D1594517D0002C05D130002843431E91
:10130000984100E00120F0BCBB46B246A946A04689
:10131000F0BD330001202B43F5D1A242F3D14B465F
:101320003B43F0D1E2E70020EDE7C046FF070000B5
:10133000F0B54746CE460400180016001B031B0BF1
:101340002D4D4A00994680B543000F03A446B04690
:101350003F0B520DC90F5B0DC00FAA4221D0AB420B
:1013600013D0002A22D13C43002B02D14D462E43FC
:1013700022D0002C10D0814222D002200139084016
:101380000138C0BCB946B046F0BD4D462E4329D108
:10139000002AF0D13C43EED10028F2D10120404296
:1013A000EFE73D0025431DD19342EED0002BE2D163
:1013B0004C462643DFD1E0E70020002CE1D0DCE7FB
:1013C0009A420ADCE8DB4F45D7D80ED000204F45C3
:1013D000D7D20029E2D00800D3E743425841400069
:1013E0000138CEE702204042CBE7C445C5D80020F3
:1013F000C445C6D2EDE7C046FF070000F0B547463A
:10140000CE460400180016001B031B0B2C4D4A008F
:10141000994680B543000F03A446B0463F0B520DDA
:10142000C90F5B0DC00FAA420DD0AB4210D0002AED
:1014300027D13C43002B11D14D462E430ED1002025
:10144000002C15D00EE03D00254310D1934218D159
:101450004D462E430BD1002A02D13C43002C0BD029
:10146000814214D0022001390840013800E00220F6
:10147000C0BCB946B046F0BD0028F9D101204042B9
:10148000F6E7002BECD14C462643E9D1EAE79A4235
:1014900004DD4342584140000138E9E79A42EBDB62
:1014A0004F45DFD806D000204F45E1D20029E5D0D6
:1014B0000800DDE7C445D5D80020C445D8D2F5E7FB
:1014C000FF070000F0B557464E464546DE46E0B5FC
:1014D00098460C034B000600924687B0240B5B0D28
:1014E000CF0F002B00D15CE1D94A934200D175E1C6
:1014F000420FE4001443802212041443D54AC5006D
:10150000944663440093002399469B4643464246D3
:101510001E03D20F5B0050469046360B5B0D00D188
:1015200020E1CB4A934200D162E1CA49420F8C4686
:1015300000996344F6008C46164380229C441204B2
:1015400063461643C20000200093009943460131D0
:101550008C4649467B4001930F2926D8BE4B890013
:1015600059588F46434601933400150083465B4625
:10157000022B16D0032B00D103E2012B00D0CDE0CB
:10158000002200240025019B12052243DB071A4399
:101590002800110007B0F0BCBB46B246A946A046E1
:1015A000F0BD00240025AA4AEDE7280C2D042D0CDF
:1015B0002B00110C1204120C5343984613002F00F9
:1015C000434399464F434F44BB4647460B003F0CAD
:1015D000BA464343DA440293D14504D980277F02B7
:1015E000B9464B44029353461B0C9B4653461F047B
:1015F00043461B041B0C98463B0043440493330CA6
:101600003604360C984633004343994643464343D9
:101610002F009A46434677435D43380C4D444519A5
:10162000A94503D980235B029946CA443F04280C8C
:101630003F0C2D04ED19270C2404240C030020007A
:1016400050437A4391463A0053440593030C9A461B
:101650004A43614349445144AB44894503D98023FB
:101660005B0299464A4400040B0C000C090409185B
:1016700020009946434670435C437E435F43030C1E
:101680009846A41944444A440397A64204D98023A7
:101690005B029846474403972304029E9A46059BA3
:1016A0005E449846AE42AD4176188E4289410004B0
:1016B000000C504440446D424719B8469346494295
:1016C0008946C344D94498428041A845AD419345D9
:1016D0009241894589416D4240422843240C52423F
:1016E00049420A43039B00198018C7184B46DC0D7A
:1016F000049B75021D436A1E95414B46F60D7F0201
:1017000035435A023C431543FB0100D41CE101213F
:101710006A080D401543E207154364084F496144C8
:10172000002900DCB0E06B0709D00F222A40042A10
:1017300005D02A1DAA42AD416D4264191500E3018E
:1017400004D58021464AC90014406144454A91426B
:1017500000DD26E76207ED08640249051543240B06
:101760004A0D10E75246324300D17FE0002E00D1EF
:10177000DCE0300000F04EFD02000B3A1D230100BA
:101780009B1A52460839DA408E40164352468A4028
:10179000009B3549181A03008C46634400200093CF
:1017A000D3E6250005434AD0002C00D1B0E020004C
:1017B00000F030FD010002000B391D2310005B1A00
:1017C0003100350008388440D94085400C43264814
:1017D000831A0093002399469B4697E6050025430C
:1017E00026D1082200930223002491469B468DE6D1
:1017F0005246009B324310D1154900268C46634463
:101800004946009302231943894602209DE65B4620
:101810000197022B00D0ADE6C3E60D4A03209446A3
:1018200063444A46009303231A43914652468CE68A
:101830000C2200930323050091469B4666E6042391
:10184000994600230093013300249B465EE6C04680
:10185000FF07000001FCFFFF3CB50008FF0300008C
:10186000FFFFFFFEFE0700000DFCFFFF49460123BE
:10187000194389460026012067E6002380240025BD
:10188000434A019324037EE60120401A382800DDF4
:1018900076E61F285BDD1F2223005242511ACB40FF
:1018A0001900202803D03B4A6244944025436A1E15
:1018B00095412A000A4307210D00002415401142DA
:1018C0005BD00F2100241140042953D0111D9142F7
:1018D00092415242A4180A0023024BD5012200244F
:1018E000002550E680231B031C4209D01E4207D16D
:1018F00033431C0343461500240B254A019342E65B
:101900008022120314432403214A240B01973AE650
:1019100000F080FC01000200153120321C2900DC9F
:101920004BE7340008380025844050E700F072FC93
:1019300003001A00153220301C2A00DC1EE7564630
:10194000083B00229E4023E7009B9C46E6E61249A6
:10195000220061442E008D408A40C640691E8D41A0
:1019600032432A43C4405307B6D00F211140042903
:10197000ACD1B1E765076402240BD20815430022FD
:1019800001E68022120314432403014A240BFAE5E2
:10199000FF0700003E0400001E040000F8B5574693
:1019A0004E464546DE46E0B51E0017004A000B03D2
:1019B000520D5B0A9046420F1A43CD0FCD4C3103B6
:1019C000C300944670007A0F490AFF009A46B94650
:1019D000400DF60F1143A04200D1B1E00122564064
:1019E000B346B54200D188E04246121A002A00DC14
:1019F000AEE0002800D1C1E0BE48804500D151E1F1
:101A0000802000040143382A00DD7BE11F2A00DD2D
:101A1000EEE120203E00801A0C00D640D1408740E5
:101A200062468440521A781E8741944634432743C5
:101A3000DC1BA3429B4162465B42D31A99464B464C
:101A40001B0200D418E14B465802430A99464B4604
:101A5000002B00D137E1484600F0DCFB01000839DB
:101A60002023220048465B1ADA4088408C404346D7
:101A70001043884500DD36E1C91A4B1C1F2B00DDE1
:101A8000EAE020222600D21A01009440DE40D8402D
:101A900000239140621E94418146984631430C4395
:101AA000630709D00F232340042B05D0231DA34235
:101AB000A4416442A1441C004B461B0200D4DEE05A
:101AC00041468C4B0131994200D1E7E04B468A48B0
:101AD000E4080340180049055B07400223434A0D10
:101AE000040B1205ED0722432A4318001100F0BC35
:101AF000BB46B246A946A046F8BD4246121A002A85
:101B000052DD002800D19CE0A04500D1CAE0802031
:101B100000040143382A00DD49E11F2A00DC97E177
:101B200010000E002038C640202A04D04020821A1F
:101B300091400F43B9464C46621E944134433AE10A
:101B40000A003A4328D0B346B5422BD06B4A4244F0
:101B5000002A5DD042464446821A002C00D0F5E0AF
:101B600065461D4300D19CE1551E012A00D1FBE1D1
:101B7000604CA24200D1BDE12A00F0E008003843E9
:101B800000D1C3E0501E012A00D1A8E1594CA24265
:101B900000D187E0020036E701225640B346B54245
:101BA00000D021E7554A4244002A00D1B5E0424620
:101BB0004446821A002C00D138E14E4EB04200D18A
:101BC000DEE18026644636043443A446382A00DD2C
:101BD00096E11F2A00DD24E22026B41AA2466446BC
:101BE0005646B440A1461C004E46D440264334001D
:101BF0005646B3405E1EB3411C436346D340C918EA
:101C0000E419BC42BF417F42B94680468944D8E0CE
:101C100040463B4C0130204200D0B4E04046002812
:101C200000D044E16046184300D190E108003843F9
:101C300000D0AAE16146DB0849070B436146CC08A6
:101C400027E00800384361D0501E012A00D139E155
:101C5000A24227D002005DE702001F39CA401100EE
:101C6000202B03D04022D31A98400443631E9C418A
:101C70000023994698460C43630700D012E74B4671
:101C80004A46E4085B072343D408424619498A427E
:101C90000ED024035205240B520D22E70A00002423
:101CA00000231EE7DB086246520713436246D4084E
:101CB0001A00224300D1FCE18022120314432403C2
:101CC0000C4A240B0DE7200000F0A4FA01001831A3
:101CD0001F2900DCC4E60838844043462000002465
:101CE000884500DCC8E6044A5B1A104098468146E5
:101CF000D6E6C046FF070000FFFF7FFF01F8FFFFA9
:101D0000FE0700000F437A1E974191E66146DB080B
:101D100049070B436146CC08B8E74046D34C013035
:101D2000204200D0A2E04046002800D001E16046F9
:101D3000184300D15EE10800384300D05FE16146FE
:101D4000DB0849070B436146CC08A2E7C84DA8420F
:101D500000D1CFE0802564462D042C43A446382AC8
:101D600056DC1F2A00DDD1E020251E00AD1A644696
:101D7000AB40AC40D6405D1EAB4134432343644688
:101D8000D440091B49E06046DC1B461AA34280414F
:101D90004042814630004E46801B8146000276D488
:101DA0004B46234300D052E60024002571E7394317
:101DB0000C00621E9441E4189C429B415B426344C8
:101DC00099464B461B0200D456E701239C46A84B7C
:101DD000E044984538D04B46A648012203401800FD
:101DE000630814401C43C3071C434308994657E645
:101DF00010000E002038C640202A04D04020821A4D
:101E000091400F43B9464F467A1E974137430FE63C
:101E100062461A4313005A1E9341FC1AA742BF415F
:101E20007F42CB1B99465D46804608E666461E43C8
:101E300000D1BEE0561E012A00D109E18C4CA2421D
:101E400000D119E13200C1E642460024002348E6F1
:101E500020200C00801A3E0087408440D640781E27
:101E60008741D14034433C438C44A4E7804A9042AC
:101E700000D1E9E0DF199F429B4161445B42C918F0
:101E8000CC077F084B08994680463C43F4E6FC1A91
:101E9000A742BF4163467F42C91ACB1B99465D46A4
:101EA000D5E5FF084B075D463B43CC08EEE66246AE
:101EB0001A4300D082E00B003B431BD18024002555
:101EC0002403F9E6DC199C429B41614489465B424C
:101ED00099444B461B0244D401239846CCE6DC1BB4
:101EE0006246A3429B41511A5B42CB1A9946012399
:101EF0009846A4E5FF084B075D463B43CC08D7E670
:101F000062461A431400631E9C4179E6150064463C
:101F1000203DEC40A046202A05D040256446AA1A60
:101F2000944023439A465446631E9C4143462343B0
:101F300073E762461A4323D00A003A4300D0A0E078
:101F40006246DB08520713436246D408B0E60B0032
:101F50003B4300D128E7FF084B075D463B43CC08D5
:101F600097E60223984636E7FC1AA742BF4163462C
:101F70007F42C91ACB1B994601235D4698465EE510
:101F80004B07FF083B43CC0892E6DC1B6046A342AC
:101F9000B641401A7642801B8146000260D5FC1A89
:101FA000A742BF4163467F42C91ACB1B99465D4693
:101FB00076E5FF084B073B43CC0867E60A00DB08E1
:101FC0003A4300D16FE66246520713436246D40893
:101FD00080221203144207D0C808104204D15D4683
:101FE0000400FB0849070B435A0FDB00DB085207CC
:101FF00013435DE64B07FF083B43CC0849E6DC1979
:102000009C429B41614489465B4299444B461B027A
:1020100000D431E64A46174B1A40012391469846B0
:102020002AE616006446203EF440A046202A05D049
:1020300040266446B21A944023439A465446631E8F
:102040009C4143461C43DBE502000024002348E595
:10205000DC19BC42BF41614489467F42B94438E73C
:102060004B46234300D19FE606E6C046FE0700002C
:10207000FF070000FFFF7FFFFF084B073B43CC0833
:1020800016E66246DB08520713436246D4088022F4
:102090001203144207D0C808104204D15D46040060
:1020A000FB0849070B435A0FDB005207DB081343B9
:1020B000FEE50023014A1C0013E5C046FF070000AF
:1020C00070B505000C481C0316005B000A034900AC
:1020D000120B490D240B5B0D814208D0064A0020EB
:1020E000934203D120003043431E984170BD01202C
:1020F0002A43FBD1F2E7C046FF0700000A0030B5D3
:10210000134C530009030500090B00205B0DD20F8F
:10211000A34204DD0F48834202DD0F4BD01830BDCF
:102120008020400301430D48C01A1F2808DD0C48D9
:10213000C31AD9400B005842002AF0D11800EEE72C
:10214000084CC540A446634499400B002B43F2E77A
:10215000FE0300001D040000FFFFFF7F33040000AA
:1021600013040000EDFBFFFF70B5002816D0C31765
:10217000C5185D40C40F280000F04CF8114A121A2F
:102180000A2816DC03002E0015339E400B23181A74
:10219000C54052052D032D0B530D03E000240023F1
:1021A000002500261B052B43E407234330001900BC
:1021B00070BD0B38854052052D0300262D0B530DA5
:1021C000F0E7C0461E04000010B5041E10D000F059
:1021D00021F80F4B1B1A0A2811DC0B222100121ABE
:1021E000D14015300A035B058440120B5B0D01E002
:1021F000002300221B0513432000190010BD2200FC
:102200000B3882405B0512030024120B5B0DF1E7D3
:102210001E0400001C2101231B04984201D3000C62
:1022200010391B0A984201D3000A08391B09984249
:1022300001D30009043902A2105C40187047C0465F
:10224000040302020101010100000000000000007F
:1022500010B5002903D1FFF7DDFF203002E00800B0
:10226000FFF7D8FF10BDC04600B583B0094A5169D9
:10227000012319435161526913400193019B0022CC
:1022800000210A2000F098FB0A2000F0C5FB03B0F3
:1022900000BDC0460010024030B589B014220021B4
:1022A00003A802F005FF1F4B5969802080020143FB
:1022B00059615A6902400192019A5A698021C90202
:1022C0000A435A615B690B400293029B164C012240
:1022D0000521200000F0C6FD00220221200000F0B0
:1022E000C1FD0723039301250495002305930333C0
:1022F000069303A9200000F0EFFC80235B0003930A
:1023000084239B030493059503A9200000F0E4FCBB
:1023100000220121072000F04FFB072000F07CFB8A
:1023200009B030BD001002400004004810B5802301
:102330005B00984200D010BD034802F0B9FC034B8B
:1023400001221A70F7E7C046300C0020390C00203B
:1023500010B5104B834205D03C2200210E4802F0FC
:10236000A7FE10BD05220D490B4802F043FF0028CF
:10237000F2D004220A49084802F03CFF0028EBD0C2
:1023800005220849044802F035FF0028E4D102F094
:102390009FFDE1E7640B0020340A00207CB50008B3
:1023A00084B500088CB5000872B6FEE700B595B09C
:1023B0003022002108A802F07BFE1022002104A890
:1023C00002F076FE10220021684602F071FE022320
:1023D000089301220B920F320C921093A0239B03BF
:1023E000129308A800F052FD002817D10723049388
:1023F000053B0593002306930793012104A800F0F1
:10240000CBFF00280CD101230093002302936846E0
:1024100001F072F8002805D115B000BDFFF7C4FF28
:10242000FFF7C2FFFFF7C0FF70B5A0B04D4B1A68B1
:1024300011921A7911AB1A71372200214920684490
:1024400002F036FE00F084FAFFF7B0FFFFF724FF3A
:10245000FFF70AFF00F094F800F0B2F900F07EF9FF
:10246000072000F0E5FA02F033FD15E004AC3E4B26
:10247000220023CB23C223CB23C219681160998881
:1024800091809B799371200002F086FE82B26423D2
:102490002100364802F01AFA022002F0ABFD041EB9
:1024A000E4D104AD324B2A0043CB43C243CB43C2F9
:1024B00003CB03C2280002F06FFE82B2642329001E
:1024C0002A4802F003FAFA20800000F063FA07209D
:1024D00000F0A2FA15E011A9C95C8A18D2B2013342
:1024E0000B2BF8DD11A90A73204D0D22280001F0F5
:1024F0001BFE02221F49280001F016FE1E4B00227F
:102500001A701D4B1B78002BFBD01C4BD878000495
:102510001A79120210435A79104302909A791204E0
:10252000D97909020A431E7A1643039602F0DEFAAD
:1025300005000090300002F0D9FA01900295039056
:102540002A0E11AB1A712A0C5A712A0A9A71DD717E
:10255000020E1A72020C5A72020A9A72D872220081
:102560000023BDE7C0B4000894B50008640B002048
:10257000B4B5000860B60008390C0020300C00200B
:1025800010B51148114B036082235B0043600023A8
:102590008360E022D200C260036101224261802296
:1025A00092008261E13AFF3AC26103624362836250
:1025B000193AC2620363436301F0A6F9002800D10F
:1025C00010BDFFF7F1FEFBE7700A0020003001406C
:1025D00010B588B004001422002103A802F068FDA1
:1025E0002268124B9A4201D008B010BD104B996975
:1025F00080204001014399619A6902400192019A49
:102600005A69802189020A435A615B690B4002932F
:10261000029BE0230393DE3B049301330693902057
:1026200003A9C00500F058FBDEE7C04600300140BA
:102630000010024082B00A4B99690122114399614E
:1026400099690A400092009ADA69802149050A4393
:10265000DA61DB690B400193019B02B07047C04611
:1026600000100240FEE7FEE77047704710B500F02B
:102670007FF910BD10B58020400000F0F9FB10BDBF
:1026800010B5024800F0D2FA10BDC046200B002061
:1026900010B5024801F024FE10BDC046640B0020B6
:1026A0000120704710B502F0DBFC16230360012007
:1026B000404210BD10B501214942FFF7F3FFFEE78C
:1026C00070B50C001600002504E000E000BF20708B
:1026D00001350134B542F8DB300070BD70B516002D
:1026E000002405E04D1C087800E000BF01342900FB
:1026F000B442F7DB300070BD0120404270478023B8
:102700009B014B60002070470120704700207047FC
:1027100010B503000C4A0D49521A0D4909680029E9
:1027200007D00B490868C318934206D8084A1360BB
:1027300010BD074907480860F3E702F091FC0C233D
:10274000036001204042F3E7002000200004000065
:10275000D40A0020880C00207047000010B50A48F9
:102760000A4B03602F23436000238360084AC26042
:1027700003614361836101F06BFC002800D110BD4F
:10278000FFF712FEFBE7C046D80A002000480140D0
:10279000FFFF000082B00268074B9A4201D002B0EE
:1027A0007047064A91698020C00201439161936994
:1027B00003400193019BF2E70048014000100240F2
:1027C00010B50C480C4B036096239B01436000231B
:1027D0008360C36003610C2242618361C361036251
:1027E000436202F02DF9002800D110BDFFF7DCFD97
:1027F000FBE7C046640B00200038014010B588B0EC
:1028000004001422002103A802F052FC234B22688A
:102810009A4201D008B010BD214B99698020C001B7
:10282000014399619A6902400192019A5A69802193
:1028300089020A435A615B690B400293029BC023E1
:10284000DB0003930223049301330693023B0793B7
:10285000902003A9C00500F03FFA1248124B036014
:1028600010234360002383608022C26003614361C0
:102870008361C36100F030F900280BD1094BE36696
:102880005C62002202211B2000F096F81B2000F061
:10289000C3F8BFE7FFF788FDF0E7C0460038014006
:1028A00000100240200B00201C0002400D4885460D
:1028B0000D480E490E4A002302E0D458C450043398
:1028C000C4188C42F9D30B4A0B4C002301E013606F
:1028D0000432A242FBD3FFF73FFF02F0C7FBFFF732
:1028E000A3FDFEE70020002000000020180A0020C1
:1028F00050BD0008180A0020840C0020FEE70000EC
:1029000010B504000F4B1978FA208000FDF7FCFB8E
:1029100001000D4B1868FDF7F7FB00F099F800284F
:102920000DD1032C01D901200AE001300022210041
:10293000404200F041F8054B1C60002000E00120FF
:1029400010BDC04604000020000000200800002048
:1029500010B5064A136810210B4313600320FFF7DC
:10296000CFFFFFF767FE002010BDC04600200240E9
:10297000034A1168034B1B785B1813607047C0460D
:10298000E80B002004000020014B18687047C04687
:10299000E80B002070B50400FFF7F6FF0500631C8C
:1029A00002D0044B1B78E418FFF7EEFF401BA04257
:1029B000FAD370BD0400002070B5002811DB830835
:1029C000134EC0339B009D5903242040C000FF22BA
:1029D00014008440A54389010A4082402A439A5149
:1029E00070BD0F230340083B9B0806339B00094A38
:1029F000944663445C6803221040C000FC3215001A
:102A00008540AC4389010A40824022435A60E7E78F
:102A100000E100E000ED00E0002805DB1F23184086
:102A20001E3B8340014A13607047C04600E100E04E
:102A300000280ADB1F2318401E3B834003498022E5
:102A40008B50BFF34F8FBFF36F8F704700E100E0F3
:102A5000013880235B0498420FD2094A506009482C
:102A6000036A1B021B0AC02109060B4303620023F1
:102A7000936007331360002070470120FCE7C046D5
:102A800010E000E000ED00E030B50124056CAC4042
:102A9000C56B6C60046863604368102B04D00368E6
:102AA00099600368DA6030BD03689A600368D96092
:102AB000F9E7000010B504000068054B9C4660442F
:102AC0001421FDF721FB80002064024BE36310BD5D
:102AD000F8FFFDBF0000024070B5041E20D0212584
:102AE0000223435501680B680E4A1A404368806808
:102AF0000343E06803432069034360690343A0691B
:102B00000343E069034313430B602000FFF7D2FF48
:102B10000023A363012262551F32A354002070BD1D
:102B20000120FCE70FC0FFFF70B504002020205CEF
:102B3000012832D02020012525540130205C0128B5
:102B400004D020230022E254022070BD2030013541
:102B500025540020A063256828680126B04328601A
:102B60002000FFF791FFE36A002B0BD02268136867
:102B70000E210B4313602268136801210B4313607D
:102B80000020E2E7226813680A210B4313602268E1
:102B9000136806398B431360EDE70220D5E710B5C3
:102BA0002123C35C022B06D0042383631C33002241
:102BB000C254012010BD026813680E218B431360BC
:102BC00001680A6801239A430A60C26B1900046C09
:102BD000A1405160212283541F330022C25400209F
:102BE000E8E710B52123C35C022B03D004238363E1
:102BF000012010BD026813680E218B431360016829
:102C00000A6801239A430A60C26B1900046CA14050
:102C10005160212283541F330022C254436B002B86
:102C200002D098470020E4E70020E2E770B5C36BCC
:102C30001A6804682568016C04238B401A4212D07C
:102C40006B0710D523689B0603D4236804229343A3
:102C50002360C26B0423016C8B405360C36A002B5A
:102C600000D0984770BD02238B401A4218D0AB07A2
:102C700016D523689B0606D423680A229343236053
:102C80002123093AC254C26B0223016C8B4053606A
:102C900020230022C254836A002BE3D09847E1E747
:102CA00008238B401A42DDD02B07DBD523680E2288
:102CB00093432360C26B01231900046CA14051604F
:102CC0008363212283541F330022C254036B002BE1
:102CD000C8D09847C6E70000F0B583B0002357E09E
:102CE00084685F000326BE40B4432600CC68BC4025
:102CF00034438460446894434A6816090122324090
:102D00009A402243426053E0DC080834A40026586D
:102D100005321A4092000F279740BE430F69974033
:102D20003A003243225057E0032600E00026A64036
:102D300034003C4302329200444E9451444A146899
:102D4000EA432600AE434F68FF0301D52C4326001B
:102D50003F4C26606468260016404F68BF0301D5CB
:102D60002C4326003A4C6660A468260016404F6843
:102D7000FF0201D52C432600354CA660E4682240B2
:102D80004E68B60201D52A002243314CE26001337D
:102D90000C682200DA4057D001229A4025001540E5
:102DA0001442F4D003244E683440013C012C97D9DE
:102DB00003224C682240032A09D0C2685E00032423
:102DC000B440A24314008A68B2402243C260032286
:102DD0004C682240022A97D004685E000322170044
:102DE000B740BC434F683A40B24022430260C02221
:102DF00092024C681442CAD0164CA66901221643AE
:102E0000A661A46922400192019A9A08941CA40028
:102E10000E4EA75903241C40A4000F26A640B7431A
:102E20009026F605B04281D00B4EB04208D00B4E32
:102E3000B04207D00A4EB04200D175E7052676E7CA
:102E4000012674E7022672E703B0F0BD00000140DE
:102E5000000401400010024000040048000800483F
:102E6000000C0048002A01D0816170478162FCE7B4
:102E700010B5054B5B69184200D110BD024B58617B
:102E8000FFF754FAF9E7C0460004014070B582B07C
:102E9000041E00D12EE20368DB0726D5AE4B5A682C
:102EA0000C231340042B18D0AB4B5A680C2313404F
:102EB000082B0ED06368012B3CD0002B51D1A64BC0
:102EC0001A68A6490A401A601A68A5490A401A6099
:102ED00036E0A14B5B68DB03ECD59F4B1B689B0383
:102EE00003D56368002B00D107E223689B0772D5E6
:102EF000994B5B680C221A425DD0974B5A680C23A1
:102F00001340082B53D0E368002B00D185E0924A90
:102F1000136801210B431360FFF736FD05008E4B4C
:102F20001B689B0770D4FFF72FFD401B0228F6D9C2
:102F30000320E0E1884A116880235B020B431360A1
:102F40006368002B25D0FFF71FFD0500824B1B682F
:102F50009B03CAD4FFF718FD401B6428F6D9032051
:102F6000C9E1052B09D07C4B1A687C490A401A60DC
:102F70001A687B490A401A60E2E7774B1968802299
:102F8000D2020A431A601968802252020A431A6068
:102F9000D6E7FFF7F9FC05006F4B1B689B03A4D530
:102FA000FFF7F2FC401B6428F6D90320A3E16A4B2B
:102FB0005B68DB03A7D4684B1B689B0703D5E368FA
:102FC000012B00D09BE164490B68F82293432269EE
:102FD000D20013430B6023681B0744D5E369002B21
:102FE0002ED05D4A536A01210B435362FFF7CCFC9C
:102FF0000500594B5B6A9B0735D4FFF7C5FC401BA6
:103000000228F6D9032076E153490B68F82293434E
:103010002269D20013430B60DDE74F4A1368012198
:103020008B431360FFF7B0FC05004B4B1B689B07FD
:10303000D1D5FFF7A9FC401B0228F6D903205AE19D
:10304000454A536A01218B435362FFF79DFC0500FB
:10305000414B5B6A9B0706D5FFF796FC401B022895
:10306000F6D9032047E123685B0700D480E03A4BA0
:10307000DB69DB001DD4384AD1698020400501435B
:10308000D161D36903400193019B0125354B1B6836
:10309000DB0510D5A368012B21D0002B36D12E4B98
:1030A0001A6A01218A431A621A6A03318A431A6230
:1030B0001AE00025EAE72B4A116880235B000B43E6
:1030C0001360FFF761FC0600264B1B68DB05E1D4AB
:1030D000FFF75AFC801B6428F6D903200BE11E4A37
:1030E000136A01210B431362A368002B24D0FFF75E
:1030F0004BFC0600184B1B6A9B0737D4FFF744FCB8
:10310000801B194B9842F5D90320F4E0052B09D018
:10311000114B1A6A01218A431A621A6A03318A43DF
:103120001A62E1E70C4B1A6A04210A431A621A6A0E
:1031300003390A431A62D7E7FFF726FC0600064B5D
:103140001B6A9B0712D5FFF71FFC801B064B98429A
:10315000F5D90320CFE0C04600100240FFFFFEFF7C
:10316000FFFFFBFF0070004088130000012D33D0EB
:103170002368DB0610D56369012B33D0053351D1A9
:10318000654A536B04218B435363536BF4318B4378
:10319000A169C9000B435363236A002B00D1B0E03F
:1031A0005D4A51680C220A40082A00D18AE0022BAD
:1031B0004FD0594A136859490B401360FFF7E4FB9D
:1031C0000400554B1B689B017AD5FFF7DDFB001B04
:1031D0000228F6D903208EE04F4AD36950490B40AC
:1031E000D361C5E74C4B5A6B04210A435A635A6BAF
:1031F00003390A435A63FFF7C7FB0500464B5B6B75
:103200009B0706D4FFF7C0FB401B0228F6D903201A
:1032100071E041494B6BF8229343A269D2001343FA
:103220004B63B9E73C4B5A6B04210A435A635A6B10
:1032300003398A435A63FFF7A7FB0500364B5B6BE4
:103240009B07A9D5FFF7A0FB401B0228F6D9032056
:1032500051E0314A136831490B401360FFF794FB8A
:1032600005002D4B1B689B0106D5FFF78DFB401B0E
:103270000228F6D903203EE0274BDA6A0F218A4361
:10328000E16A0A43DA625A6826490A40A16A606A1A
:1032900001430A435A601968802252040A431A60A3
:1032A000FFF772FB04001C4B1B689B0106D4FFF761
:1032B0006BFB001B0228F6D903201CE000201AE05B
:1032C000002018E0012B1ED0134B5A68D96A8023C6
:1032D0005B021340606A834217D10F230B40E16AFF
:1032E0008B4214D1F0239B031A40A36A9A4210D157
:1032F000002000E0012002B070BD0120FBE70120AA
:10330000F9E70020F7E70120F5E70120F3E70120C6
:10331000F1E70120EFE7C04600100240FFFFFFFE8B
:10332000FFFFFFEFFFFFC2FF10B588B004AA164BE6
:1033300013CB13C21B6813606A46144B13CB13C222
:103340001B681360124B5A680C231340082B02D0E1
:10335000104808B010BD910C0733194004A8445C14
:103360000B49C96A0B406946C95CD30304D50948B7
:10337000FCF7CAFE6043ECE763011B1B9801C01A0F
:10338000C00000190002E4E7ECB5000800B6000830
:103390000010024000127A0070B504000D000028F1
:1033A00000D17EE0434B1A68012313408B420AD2BE
:1033B00040490B68012293432B430B600B681A4072
:1033C000AA4200D06FE023689A070ED55B0705D5A7
:1033D000394A5168E023DB000B435360364A536897
:1033E000F0218B43A1680B4353602368DB072DD585
:1033F0006368012B1ED0022B22D02F4A126892073D
:1034000053D52D494A680320824313434B60FFF78D
:10341000BBFA0600284B5B680C221A4063689B00CD
:103420009A4213D0FFF7B0FA801B244B9842F1D98F
:10343000032035E0204A12689203E2D401202FE0F5
:103440001D4A12689201DCD4012029E0194B1A6848
:1034500001231340AB4209D916490B68012293435B
:103460002B430B600B681A40AA4220D123685B07EC
:1034700006D5114A536812490B40E1680B4353606B
:10348000FFF752FF0C4B5A6812090F2313400D4AE5
:10349000D35CD8400C4B18600320FFF731FA0020B2
:1034A00070BD0120FCE70120FAE70120F8E70120C8
:1034B000F6E7C046002002400010024088130000DA
:1034C000FFF8FFFFD4B5000800000020014B18688A
:1034D0007047C0460000002010B5FFF7F7FF044B0F
:1034E0005A68120A07231340024AD35CD84010BD21
:1034F00000100240E4B5000870B582B00400036813
:10350000DB0337D53D4BDB69DB0049D43B4AD1694E
:10351000802040050143D161D36903400193019BA1
:103520000125374B1B68DB053CD5344B1A6AC02399
:103530009B00110019401A4213D0626813408B425D
:103540000FD02E4B186A2F4A02401E6A8021490272
:1035500031431962196A2C4E314019621A62C3074D
:1035600034D4264A136A27490B4061680B4313621F
:10357000012D3AD02368DB0706D5204A136B0321BF
:103580008B43A1680B43136323689B0632D51B4A08
:10359000136B10218B43E1680B43136300202AE077
:1035A0000025BEE7164A116880235B000B431360B9
:1035B000FFF7EAF90600124B1B68DB05B5D4FFF7ED
:1035C000E3F9801B6428F6D9032014E0FFF7DCF947
:1035D00006000A4B1B6A9B07C3D4FFF7D5F9801B73
:1035E0000A4B9842F5D9032005E0D36908490B40FE
:1035F000D361BFE7002002B070BDC046001002409A
:1036000000700040FFFCFFFFFFFFFEFF881300007B
:10361000FFFFFFEFF0B5D6464F464646C0B582B035
:1036200006000D0090461F00FFF7AEF90A9B181A1E
:103630008146B944FFF7A8F982462E4B1B685B010F
:103640001B0D4A465343019333689C682C40641B0E
:1036500063425C41444545D07B1CF5D0FFF794F9AB
:103660005346C01A48450BD24B46002B08D0019A4E
:10367000002A00D04A46019B013B01939146E3E7B3
:1036800032685368E0218B43536082235B00726889
:103690009A420CD080239B01B26A9A4216D05D23D5
:1036A0000122F254013B0022F25403201BE0B368D4
:1036B00080221202934203D08022D2009342E9D1A9
:1036C0003268136840218B431360E3E73268136864
:1036D00009490B4013603268116880239B010B433A
:1036E0001360DCE7002002B0E0BCBA46B146A84651
:1036F000F0BDC04600000020FFDFFFFFF0B5DE4652
:1037000057464E464546E0B583B007000D0016000B
:1037100098466B460022DA70FFF736F90C9B181AB0
:1037200040448146FFF730F982463B689B46364B62
:103730001A6893009A18D3009B1A1B0D4A465343EC
:10374000019302E04346013311D13B689C682C4051
:10375000B44250D0C023DB009D42F3D1002EF1D102
:103760005B461B7BDBB26A46D370D378EAE7FFF790
:103770000BF95346C01A48450BD24B46002B08D0D4
:10378000019A002A00D04A46019B013B01939146D1
:10379000DBE73A685368E0218B43536082235B0088
:1037A0007A689A420CD080239B01BA6A9A4216D05A
:1037B0005D230122FA54013B0022FA5403201BE04E
:1037C000BB6880221202934203D08022D20093422F
:1037D000E9D13A68136840218B431360E3E73A6804
:1037E00013680A490B4013603A68116880239B01F3
:1037F0000B431360DCE7002003B0F0BCBB46B246CD
:10380000A946A046F0BDC04600000020FFDFFFFF34
:1038100070B582B004000D001600C02100922B008C
:1038200000224901FFF76AFF002818D100962B00FB
:10383000002280212000FFF7EDFE002816D1C021D4
:1038400000962B000022C9002000FFF757FF002838
:103850000AD0236E202213432366032004E0236E44
:10386000202213432366032002B070BD236E202262
:10387000134323660320F7E770B582B004000D0000
:10388000160082235B0042689A420FD000962B00FC
:10389000002280212000FFF7BDFE002815D18223E1
:1038A0005B0062689A4216D002B070BD83688022C5
:1038B0001202934203D08022D2009342E6D12268C2
:1038C000136840218B431360E0E7236E20221343EB
:1038D00023660320E8E7A36880221202934203D004
:1038E0008022D2009342DFD1C02100962B0000221B
:1038F000C9002000FFF702FF0028D5D0236E202248
:10390000134323660320CFE770B5041E00D178E08F
:10391000436A002B07D10533FF3342689A4205D032
:103920000023C36102E00023036143610023A3621B
:103930005D33E35C002B5AD05D230222E2542268FF
:10394000136840218B431360E368E022D200934266
:1039500054D90022F02109018B4205D0E021C90091
:103960008B4201D00023A36282235B0061680B407D
:1039700084210902A06801400B4302212069014013
:103980000B43012160690840034380208000A56942
:10399000284003433820E569284003438020256AF6
:1039A0002840034380208001A56A28400343206803
:1039B0000360608B042303401020656A28400343A2
:1039C0000820656B28400343F0200001E56828408B
:1039D00003432068134343602268D3690A480340C5
:1039E000D361002323665D33E154002070BD5C3356
:1039F0000022E2542000FEF7EBFD9DE780225201F9
:103A0000A8E70120F2E7C046FFF7FFFFF0B5CE467A
:103A100000B584B00400019191461D005C23C35C95
:103A2000012B00D1C9E05C230122C254FEF7ACFF98
:103A300006005D23E35CDFB2012B00D0A9E0019911
:103A4000002900D1A6E04B46002B00D1A2E05D2367
:103A50000322E25400232366A1634A46A287E28739
:103A600023644422A3520232A3522365E3648023D9
:103A70001B02A2689A421ED023681A68520603D419
:103A80001A6840210A431A60E023DB00E2689A4288
:103A900039D96368002B02D04B46012B20D1236813
:103AA000A26B1288DA60A36B0233A363E38F013B3E
:103AB0009BB2E38714E02268136840218B431360B4
:103AC000226811688023DB010B431360D4E7FEF703
:103AD0005BFF801BA84201D36B1C66D1002D66D012
:103AE000E18F89B200293CD023689A689207EED50D
:103AF000A26B1288DA60A36B0233A363E38F013BEE
:103B00009BB2E387ECE76368002B02D04B46012BA6
:103B100014D1A36B1B7822681373A36B0133A363C7
:103B2000E38F013B9BB2E38708E0FEF72DFF801B8C
:103B3000A84201D36B1C3CD1002D3CD0E18F89B24F
:103B400000290ED023689A689207EED5A26B1278EE
:103B50001A73A36B0133A363E38F013B9BB2E3872B
:103B6000ECE7320029002000FFF752FE002801D0C8
:103B700020232366A368002B06D103932368DA6809
:103B800003929B680393039B236E002B02D10027B3
:103B900000E002275D230122E254013B0022E254AF
:103BA000380004B080BCB946F0BD0327F2E7032714
:103BB000F0E70327EEE70327ECE70227F0E7000032
:103BC000F0B583B00400009101921E00089D5C23B3
:103BD000C35C012B00D116E15C230122C254FEF725
:103BE000D3FE07005D23E35CD9B26268012B0BD0E2
:103BF00082235B009A4200D0ECE0A368002B00D047
:103C0000F1E0042900D0F0E0009B002B00D1EEE0B1
:103C1000019B002B00D1ECE0002E00D1EBE05D23F6
:103C2000E35C042B02D05D230522E25400232366CB
:103C3000019A22644622A652023AA652009AA26330
:103C4000E687A687E3642365E023DB00E2689A4207
:103C500023D9226853686D490B40536023681A6862
:103C6000520603D41A6840210A431A60E023DB009D
:103C7000E2689A4254D96368002B01D0012E0AD120
:103C80002368A26B1288DA60A36B0233A363E38F0D
:103C9000013B9BB2E38701262EE022685168802316
:103CA0005B010B435360D9E7A26B1288DA60A36B08
:103CB0000233A363E38F013B9BB2E38700262368B3
:103CC0009A68D20710D54622A25A92B2002A0BD087
:103CD000DB68226C1380236C023323644622A35AD0
:103CE000013B9BB2A3520126FEF74EFEC01BA84229
:103CF00002D36B1C00D080E0E38F9BB2002B04D179
:103D00004633E35A9BB2002B59D023689A68920736
:103D1000D5D5E28F92B2002AD1D0012ECFD1C3E700
:103D20006368002B01D0012E0AD1A36B1B78226897
:103D30001373A36B0133A363E38F013B9BB2E38750
:103D400001261DE023689A68D20710D54622A25AA0
:103D500092B2002A0BD01B7B226C1370236C0133B0
:103D600023644622A35A013B9BB2A3520126FEF7CD
:103D70000BFEC01BA84201D36B1C40D1002D40D0CC
:103D8000E38F9BB2002B04D14633E35A9BB2002B46
:103D900015D023689A689207D4D5E28F92B2002A90
:103DA000D0D0012ECED1A26B12781A73A36B01333F
:103DB000A363E38F013B9BB2E3870026C2E73A008F
:103DC00029002000FFF724FD002804D020232366CB
:103DD000012000E002205D230122E254013B002289
:103DE000E25403B0F0BD0220F5E70220F3E7012022
:103DF000F1E70120EFE70120EDE70320EBE70320E7
:103E0000E9E70320E7E70220EBE7C046FFEFFFFF0B
:103E1000F0B5C64600B584B00400039190461D007D
:103E200082235B0042689A4245D05C23E35C012B0D
:103E300000D1BDE05C230122E254FEF7A5FD07009E
:103E40005D23E35CDEB2012B00D09DE003990029E5
:103E500000D19AE04346002B00D196E05D23042276
:103E6000E25400232366216440324146A1520232CB
:103E7000A152A363A387E387E3642365E023DB0008
:103E8000E2689A4224D9226853684A490B40536039
:103E900080231B02A2689A4221D023681A68520626
:103EA00003D41A6840210A431A60E023DB00E26869
:103EB0009A4228D945E08368002BB6D15D330422AD
:103EC000C254009543460A00FFF77AFE060062E0FE
:103ED0002268516880235B010B435360D8E7226856
:103EE000136840218B4313602268136832490B40EA
:103EF0001360D2E7FEF748FDC01BA84201D36B1C3C
:103F00004ED1002D4ED04623E15A89B200292DD042
:103F100023689A68D207EDD51B7B226C1370236C43
:103F2000013323644622A35A013B9BB2A352EAE722
:103F3000FEF72AFDC01BA84201D36B1C34D1002D13
:103F400034D04623E15A89B200290FD023689A68F9
:103F5000D207EDD5DB68226C1380236C0233236417
:103F60004622A35A013B9BB2A352EAE73A0029003A
:103F70002000FFF781FC002801D020232366236E58
:103F8000002B02D1002600E002265D230122E2542C
:103F9000013B0022E254300004B080BCB846F0BDC2
:103FA0000326F2E70326F0E70326EEE70326ECE715
:103FB0000226F0E7FFEFFFFFFFBFFFFF03681D4A88
:103FC000904202D01C4A904203D1702293434A6827
:103FD0001343184A90420ED0174A90420BD0174A0A
:103FE000904208D0164A904205D0164A904202D01C
:103FF000154A904203D1154A1340CA6813438022E0
:1040000093434A69134303608B68C3620B688362FE
:10401000084B984208D00A4B984205D0094B984269
:1040200002D0094B984201D10B690363012343611C
:104030007047C046002C01400004004000200040B2
:10404000004001400044014000480140FFFCFFFFE8
:1040500070B5041E26D03D23C35C002B1CD03D252B
:1040600002236355210001C9FFF7A8FF012346225F
:10407000A354083AA3540132A3540132A354013289
:10408000A3540132A3540132A3540132A354013288
:10409000A3546355002070BD3C330022C254FEF788
:1040A00079FBDCE70120F6E710B5EFF3108101237F
:1040B00083F3108802681368C024A343136081F35C
:1040C00010882023836710BD10B5EFF3108C0122F8
:1040D00082F3108801680B68124C23400B608CF34C
:1040E0001088EFF3108C82F3108801688B6893437B
:1040F0008B608CF31088036E012B05D02023C367DF
:1041000000230366436610BDEFF3108183F310882C
:10411000026813683234FF34A343136081F31088BC
:10412000ECE7C046DFFEFFFF10B504001300826F0E
:10413000202A54D1002954D0002B54D0802252017F
:104140008068904230D07422A25C012A4DD0742243
:104150000120A054E164243AA3520232A3522E3229
:104160000021A1505F3AA267E26E002A23D02049C5
:104170009162E26E1F49D162E26E1F491163E26EE5
:104180000021516322682832E16CE06EFEF7CCFC1E
:10419000002810D080231022E2500C3B0022E25471
:1041A000543BA36701201BE02269002ACBD1CA0738
:1041B000C9D5012014E0236840221A62742300222A
:1041C000E254EFF31081733B83F310882268936805
:1041D00080200343936081F31088002000E00220D8
:1041E00010BD0120FCE70120FAE70220F8E7C046F5
:1041F000FF410008714200087D420008704710B579
:10420000436A8269202A1AD0522200219952EFF380
:10421000108C013181F31088186882688024A243D1
:1042200082608CF31088EFF3108081F310881A6895
:1042300013683F310B43136080F3108810BD1800E2
:10424000FFF7DCFFFAE710B5EFF31081012383F3EA
:104250001088026813684024A343136081F3108818
:104260002023836700238366FFF7C8FF10BD7047D4
:1042700010B5406AFFF7FBFF10BD704770B5446A88
:10428000A26FE56F23689B681B0601D5212A0ED01B
:1042900023689B685B0601D5222D0FD08022A3588E
:1042A00010210B43A3502000FFF7E7FF70BD5223FE
:1042B0000022E2522000FFF7F7FEE9E75A2300222E
:1042C000E2522000FFF700FFE8E710B5406A002344
:1042D0005A228352083A8352FFF7CFFF10BD0000E5
:1042E00070B504000268D36910689668A4491D007F
:1042F0000D400B4203D1990601D5810618D4002D3B
:1043000007D001210D003540314217D19D490842A7
:1043100014D1216E012900D193E01A0602D50206BC
:1043200000D522E15B0602D5430600D524E170BD2D
:10433000636E002BFBD020009847F8E7D90707D51C
:10434000C10505D5012616628021625832436250AC
:104350009A0709D5002D07D02268022111627E310B
:1043600062580426324362505A0709D5002D07D0FF
:104370002268042111627C31625802263243625065
:104380001A070AD5820601D4002D06D02268082516
:104390001562802162582A4362501A050AD54201EB
:1043A00008D52268802109011162802162582025E8
:1043B0002A4362508022A258002AB8D09B0606D514
:1043C000830604D5636E002B01D02000984780231C
:1043D000E25823689B685B0602D42823134229D045
:1043E0002000FFF771FE23689B685B061ED5EFF384
:1043F0001081012383F3108822689368402083434F
:10440000936081F31088236F002B0BD05E4A5A63B0
:10441000206FFEF7E6FB002800D188E7206F436B92
:10442000984784E72000FFF728FF80E72000FFF788
:1044300024FF7CE72000FFF720FF80230022E250CA
:1044400075E7D90600D468E7C10600D465E71023F4
:10445000136223689B685B064FD5226F13685B6805
:104460009BB2002B00D162E75821615A994200D8D3
:104470005DE75A2163529369202B09D15823E15AF1
:104480000233E35AC91A89B22000FDF761FF4EE7F3
:10449000EFF31080012383F3108821680A683B4DF5
:1044A0002A400A6080F31088EFF3108083F31088AD
:1044B00021688A689A438A6080F31088EFF310803D
:1044C00083F3108821688A684235FF35AA438A60E1
:1044D00080F310882022E26700222266EFF3108129
:1044E00083F310882268136810208343136081F3DC
:1044F0001088206FFEF753FBC0E75823E15A0233C0
:10450000E25A891A89B2E35A9BB2002B00D10EE716
:10451000002900D10BE7EFF31085012383F3108806
:10452000206802681A4E3240026085F31088EFF36B
:10453000108583F31088206882689A43826085F32F
:1045400010882022E267002222666266EFF3108064
:1045500083F31088226813681025AB43136080F33F
:1045600010882000FDF7F4FEE1E6A36E002B00D1D9
:10457000DDE620009847DAE62000FFF764FED6E685
:104580000F08000020010004CB420008FFFEFFFFDF
:10459000DFFEFFFF10B50400836802691343426920
:1045A0001343C269134301680A6851480240134328
:1045B0000B60226853684F490B40E1680B4353601E
:1045C000226AA3691A4321688B684B48034013434E
:1045D0008B602368494A934223D0494A934231D0A1
:1045E0001023E06980221202904235D0042B00D1C2
:1045F00076E064D8002B00D16BE0022B5DD14148FE
:1046000063685B0818186168FBF77EFD0004000C06
:104610000200103A3C4B9A4267D82368D8600020C9
:1046200053E03A4B1A6B03231340022B0CD005D8EE
:10463000002B0BD0012B0BD10333D2E7032B09D175
:10464000013BCEE70023CCE70823CAE70023C8E7F5
:104650001023C6E71023C4E7042B2BD020D8002B4F
:1046600022D0022B1AD12748400063685B08C0188B
:104670006168FBF749FD83B20004000C01001039AA
:10468000214A91422FD80F2293431A004008072352
:10469000184010432368D860002016E0012014E081
:1046A000082BE1D0012010E0FEF716FF0028DBD137
:1046B00000200AE0FEF738FEF8E7012005E0082BAD
:1046C00002D1802000029BE7012000236366A366DD
:1046D00010BDFEF701FF002800D091E70020F4E7AD
:1046E000FEF722FEF7E70120EFE70120EDE7C046E5
:1046F000F369FFFFFFCFFFFFFFF4FFFF003801402A
:104700000044004000127A00EFFF00000010024059
:10471000436ADB0706D5026853682C490B40816A5F
:104720000B435360436A9B0706D5026853682849C8
:104730000B40C16A0B435360436A5B0706D50268AE
:10474000536824490B40016B0B435360436A1B07BA
:1047500006D50268536820490B40416B0B435360F8
:10476000436ADB0606D5026893681C490B40816BDF
:104770000B439360436A9B0606D502689368184909
:104780000B40C16B0B439360436A5B060BD5026819
:10479000536814490B40016C0B43536080235B0347
:1047A000026C9A420AD0436A1B0606D50268536817
:1047B0000D490B40816C0B4353607047026853688E
:1047C0000A490B40416C0B435360ECE7FFFFFDFFD0
:1047D000FFFFFEFFFFFFFBFFFF7FFFFFFFEFFFFF7E
:1047E000FFDFFFFFFFFFEFFFFFFFF7FFFFFF9FFF71
:1047F000F8B5CE46474680B506000D00170099462D
:10480000089B98463368DC692C40641B63425C411A
:10481000BC4253D143460133F4D0FEF7B5F84B46C2
:10482000C01A40452CD84346002B29D033681A685B
:104830005207E7D5DA691205E4D5802212011A621F
:10484000EFF31080012282F3108831680B681E4C50
:1048500023400B6080F31088EFF3108082F3108800
:1048600031688B6893438B6080F310882023B36793
:10487000F3677F32B35054330022F25403201EE01A
:10488000EFF31080012282F3108831680B680E4C20
:1048900023400B6080F31088EFF3108082F31088C0
:1048A00031688B6893438B6080F310882023B36753
:1048B000F36754330022F254032000E00020C0BC10
:1048C000B946B046F8BDC0465FFEFFFFF0B5C6462C
:1048D00000B582B004000D0090461E00836F202BAF
:1048E00066D1002969D0002A69D080235B018268E3
:1048F0009A421ED07423E35C012B62D07423012200
:10490000E2540C330022E2505F3BA367FEF73CF811
:10491000070050234246E2520233E25280235B01F9
:10492000A2689A420CD00023984674230022E254D5
:104930001DE00369002BDDD1CB07DBD5012038E07A
:104940002369002B02D000239846EEE7A8460025F5
:10495000EBE743461B88DB05DB0D2268138502234A
:104960009C46E0445223E25A013A92B2E252522368
:10497000E35A9BB2002B0FD000963B00002280210F
:104980002000FFF735FF00281DD1002DE1D02B7846
:10499000226813850135E5E700963B00002240219F
:1049A0002000FFF725FF00280FD12023A36700E098
:1049B000022002B080BCB846F0BD0120F9E701201A
:1049C000F7E70220F5E70320F3E70320F1E7000013
:1049D00030B583B0040080230022C250FDF7D4FF1D
:1049E00005002268126813070DD423681B685B0753
:1049F00016D42023A367E367002323667422A354FD
:104A0000002003B030BD80210C4B00930300002236
:104A100089032000FFF7ECFE0028E6D00320F0E732
:104A20008021064B00932B000022C9032000FFF7D2
:104A3000DFFE0028DDD00320E3E7C046FFFFFF01D3
:104A400010B5041E2ED0836F002B21D02423A36722
:104A50002268136801218B4313602000FFF79AFD41
:104A6000012814D0636A002B18D1226853680E49BC
:104A70000B4053602268936808218B43936022683F
:104A8000136807390B4313602000FFF7A1FF10BD27
:104A900074330022C254FDF7B1FED7E72000FFF7C0
:104AA00037FEE2E70120F2E7FFF7FFFF0C4B1B6840
:104AB00000225A621A6801210A431A60084B1B68D7
:104AC0005A6A8242FAD3196A064A114207D1196A10
:104AD000054A114203D11A6801218A431A607047BE
:104AE000D80A002011110000440400000002001246
:104AF0007047000010B5574B73221A70002159708F
:104B0000554A12785A70997054480278920152B2FC
:104B10009A7044786401224352B29A7084782401D6
:104B2000224352B29A70C478E400224352B29A707F
:104B3000007940000243D2B29A707F204042024383
:104B40009A701022DA70197145480278D20152B277
:104B50001A71447824012243D2B21A718078024338
:104B60001A7159713F480278D20152B25A71447891
:104B700024012243D2B25A71807802435A7199714A
:104B800039480278520152B29A7144782401224382
:104B900052B29A718478E400224352B29A71C47876
:104BA000A400224352B29A71047964002243D2B223
:104BB0009A71407902439A714020404202439A71AF
:104BC000D9712A480278520152B2DA71447824012C
:104BD000224352B2DA718478E400224352B2DA718D
:104BE000C478A400224352B2DA71047964002243EB
:104BF000D2B2DA7140790243DA71197259721C48E3
:104C00000278D20152B25A724478A401224352B2BD
:104C10005A728478A4002243D2B25A72C0780243F6
:104C20005A72022002435A72997212490A78D201CA
:104C300052B29A7248788000024352B29A728978CE
:104C400049000A43D2B29A7201210A439A720C2295
:104C5000DA7210BDEC0B00201000002014000020C0
:104C60000C000020F80B00202C0000201C0000206D
:104C7000240000202800002030B583B06B46DD1DE5
:104C8000D871094C002204212000FEF7EBF86423C0
:104C9000012229000548FEF7B9FE01220421200067
:104CA000FEF7E0F803B030BD00040048700A0020B1
:104CB00070B584B004000F266E44002333700C4D91
:104CC000002204212800FEF7CDF8FA235B000093B0
:104CD000EC3BFF3B220031000648FEF771FF01224A
:104CE00004212800FEF7BEF8002004B070BDC046C5
:104CF00000040048700A002070B582B015006B46B1
:104D0000D8719E1D9971002204211B48FEF7AAF854
:104D10001A4C0A230122694607312000FEF776FE6D
:104D20000A23012231002000FEF770FE6B46DB797A
:104D30005B0619D500240BE06420FFF7B7FE0A23B9
:104D4000012229000D48FEF761FE01350134E4B26D
:104D50006B4606331B78A342EED801220421064895
:104D6000FEF780F802B070BD6B469A790A232900DD
:104D70000248FFF74DF8F0E700040048700A0020F1
:104D800070B584B0FFF7B6FE494A01320B214120CD
:104D9000FFF7B2FF0A20FDF7FDFD01AA0C2120203C
:104DA000FFF7AAFF0A20FDF7F5FD424C424B220017
:104DB00023CB23C21B781370200000F0EDF982B2E0
:104DC0000A2321003D48FFF781FD002411E0384B04
:104DD0001B5D384D22003A49280000F0BDF928003B
:104DE00000F0DAF982B20A2329003448FFF76EFD99
:104DF00001340B2CEBDD2F4C324B220023CB23C292
:104E00001B781370200000F0C7F982B20A2321003A
:104E10002A48FFF75BFD002400260FE0254D220005
:104E20002749280000F098F9280000F0B5F982B26F
:104E30000A2329002148FFF749FD01340B2C0DDC22
:104E40001B4B1A5D01AB1B5D9A42E7D0002CE5D0ED
:104E5000082CE3D00B2CE1D00126DFE7002E12D185
:104E6000144C194B220023CB23C203CB03C22000D6
:104E700000F092F982B2642321001048FFF726FD6A
:104E8000300004B070BD0B4C104B220023CB23C26A
:104E900019681160998891809B799371200000F0C6
:104EA0007BF982B2642321000448FFF70FFDE7E796
:104EB000EC0B0020FC0B002014B60008640B002053
:104EC00024B600082CB600083CB6000850B600080E
:104ED00030B585B01120FFF7CFFE6420FDF75AFDF5
:104EE0000620FFF7C9FEFA208000FDF753FD1120D0
:104EF000FFF7C2FE6420FDF74DFD01AA0C21202022
:104F0000FFF7FAFE114C200000F046F982B264234C
:104F100021000F48FFF7DAFC002412E001AB1B5D13
:104F20000C4D22000C49280000F016F9280000F072
:104F300033F982B2642329000548FFF7C7FC013426
:104F4000E4B20B2CEAD905B030BDC04634000020D5
:104F5000640B0020FC0B002024B6000810B50122D1
:104F6000084B1A710521084B9970084B99705A70BB
:104F7000FFF706FF041E00D001240A20FDF70AFDFA
:104F8000200010BD140000200C000020F80B0020B1
:104F900010B5094B00221A710123084A9370084A80
:104FA0009370FFF7EDFE041E00D001240A20FDF7E8
:104FB000F1FC200010BDC046140000200C000020B1
:104FC000F80B002010B50023074A1371074A9370AD
:104FD000074A9370FFF7D4FE041E00D001240A2074
:104FE000FDF7D8FC200010BD140000200C000020AC
:104FF000F80B002070B504000A20FDF7CBFC012C53
:105000000CD0022C0ED0002C04D0002D0ED0012587
:10501000280070BDFFF7D6FF0500F6E7FFF79EFFFB
:105020000500F2E7FFF7B4FF0500EEE70B4C0022A6
:1050300002212000FDF716FF0A20FDF7ABFC10202F
:10504000FFF71AFE0A20FDF7A5FC0122022120002D
:10505000FDF708FF0A20FDF79DFCD9E70004004892
:10506000014B18687047C0466800002070B50C4DB1
:105070000C4E761BB61005D0002408CD013498479D
:10508000A642FAD106F00EFA074D084E761BB6106E
:1050900005D0002408CD01349847A642FAD170BD4E
:1050A00044BD000844BD000844BD00084CBD0008D4
:1050B000F0B50500830749D0541E002A45D00300EF
:1050C0000326CAB202E00135013C3ED301332A7007
:1050D0003342F8D1032C30D9FF220A401502154380
:1050E0002A0415430F2C34D92700103F3F093E01F5
:1050F000B4461E001A00103666441560556095606F
:10510000D5601032B242F8D101373F01DB190F27C9
:105110000C22274022403C00002A0ED03E1FB60839
:10512000B400A4461A001C1D644420C2A242FCD153
:1051300003240136B6009B193C40002C05D0C9B2AF
:105140001C19197001339C42FBD1F0BD03001400FF
:10515000C0E72700E2E7C0460EB400B50B499CB09B
:10516000079104910A491DAB05910A4904CB0290AD
:105170000690086802A9019300F076F80023029ACD
:1051800013701CB008BC03B01847C046FFFFFF7F78
:105190000802FFFF6800002010B583070AD0030053
:1051A000032102E001330B4205D01A78002AF9D11D
:1051B000181A10BD030019680C4A0D4C8A188A434E
:1051C00022420FD15968094A04338A188A4322427D
:1051D00008D15968054A04338A188A432242F1D01B
:1051E00000E001331A78002AFBD1E1E7FFFEFEFE62
:1051F0008080808030B5002A26D003000B439B07B7
:1052000024D1032A22D9164D0BE0043A002A1BD0E0
:10521000144C1C199C432C4216D104300431032A2F
:1052200014D903680C68A342EFD004780D78AC421F
:1052300013D1012306E0C45CCD5CAC420DD1013337
:10524000934201D0002CF6D1002030BD04780D78B7
:10525000A54202D1012AECD1F6E7601BF5E7C04672
:1052600080808080FFFEFEFEF0B5DE464E4657464B
:105270004546E0B5D7B00C0091460B910F9383469D
:1052800002F0B6FF036818001C93FFF785FF1B9020
:10529000A3891B0605D523690693002B01D101F0D4
:1052A0001AF82DAB2A93002300242C932B931593EB
:1052B00000234E461693179400231D931E931A93B2
:1052C0001F932093099333782DAF002B00D10AE16F
:1052D000340003E063780134002B38D0252BF9D15A
:1052E000A51BB44237D12378002B00D1FBE0631C0F
:1052F0009A4600231CAAD37601225242079200222A
:10530000637815005446089201341A00203A5A2A4C
:1053100052D8C54992008A589746584602F068FF0D
:10532000436818002093FFF737FF80461F905846C8
:1053300002F05EFF83681A934346002B01D000F011
:1053400058FE2378E0E720231D432378DCE7A51BE4
:10535000B44200D1C7E02C9B3E605B192C932B9B81
:105360007D60069301332B93072B06DC0837099BDE
:105370009C46AC4463460993B5E758460B992AAA64
:1053800003F022FF002809D12DAFF0E7B3460E9BB2
:10539000002B03D01900584602F048FE0B9B9B8956
:1053A0005B0601D501F02DFC099857B0F0BCBB4657
:1053B000B246A946A046F0BDA246A8461293002BCD
:1053C00000D190E03DAE337000231CAAD3760022BA
:1053D0000E92013201330A920022069300230792B3
:1053E00018921392149202224146114010914146A4
:1053F0000A4202D0069A02320692842241461140A5
:10540000119141460A4205D1089A0699541A002C76
:1054100000DDCEE02C9C002B11D01CAA1B2394464F
:1054200063443B6001237B602B9B01341993013360
:105430002C942B93072B01DD00F032FC0837109BD6
:10544000002B0ED023AB3B6002237B602B9B0234EE
:10545000109301332C942B93072B01DD00F013FCE8
:105460000837119B802B00D120E3079B0A9A9D1AD5
:10547000002D00DD5EE34346DB0500D5B6E20A9B66
:105480003E609C467B602B9B6444079301332C94C5
:105490002B93072B00DD13E1083743465B0706D546
:1054A000089B069A9E1A002E01DD00F006FC089B60
:1054B000069A934200DA1300099A94469C44634684
:1054C0000993002C00D06EE300232B930E9B002B3E
:1054D00003D058460E9902F0A9FD56462DAF3378F9
:1054E000002B00D0F4E62C9B0693002B00D155E74F
:1054F00058460B992AAA03F067FE4FE7303B21007C
:1055000000201A00830018180B001B7840001018A8
:105510001A000131303A0C00092AF3D90890F4E658
:1055200012930723A2460F9CA84607349C432200EF
:1055300018CA16931794169B179C0F921D000122F0
:105540006400640828002100384B5242FCF7B8FD83
:10555000002801D000F076FD012228002100334B05
:105560005242FAF767FF002801D000F06BFD169851
:10557000179900220023FAF753FF002801D001F009
:10558000C6F81CABDB7E129A472A01DC01F097F8C3
:10559000274E8022414691437D3A0692002288465A
:1055A0000E9203320A9200220792189213921492DA
:1055B0004CE12C9A2B9B1F4D102C26DD1021300026
:1055C00089465E46390083460B9F03E0103C083154
:1055D000102C16DD4846103201330D6048602C92C5
:1055E0002B93072BF2DD390030002AAA03F0ECFDE3
:1055F000002800D0CAE6103C2C9A2B9B2DA9102C19
:10560000E8DC0F005946B3460E007C600133A41855
:105610003D602C942B93072B01DD00F086FF1CAB23
:10562000DB7E0837F7E6C046ACB60008FFFFEF7F29
:105630006CB6000818B80008159B3E60012B01DC11
:1056400000F002FC01237B602B9B01345D1C2C9439
:1056500007932B95072D01DD00F082FC08371C9B7A
:1056600001353B601B9B2B959C4664447B602C94CE
:10567000072D01DD00F082FC0837002216981799EB
:105680000023FAF7C7FE002801D000F004FC159BA8
:105690000136013BE41801353E607B602C942B956C
:1056A000072D00DDE0E3083726AB3B601E9B01358C
:1056B0009C4664447B602C942B95072D00DCEBE624
:1056C00058460B992AAA03F07FFD002800D05EE619
:1056D0002C9C2DAFE1E612930023A2460F9C1CAA3E
:1056E00040CCA846D376002E01D100F08AFF079A5D
:1056F000531C01D100F0FFFD0021300003F046F8FB
:105700000E90002801D101F009F90E9B991BCA43A4
:10571000D2170A91114000221CABDB7E06910F9438
:105720000E9207921892139214928FE0A2460F9C49
:10573000129308CC3DAE337000231CAAA846D37642
:105740000F9444E60F9A08CA0893002B01DB00F07F
:105750002DFC089B0F925B42089304231D43237882
:10576000D2E52B231CAAD3762378CDE580231D43D5
:105770002378C9E52378601C2A2B01D101F032FB84
:105780001A000024303A079401000400092A00D9C5
:10579000BBE50020830018180B001B784000801820
:1057A0001A000131303A0C00092AF3D90790ACE510
:1057B00001231D432378A7E51CABDB7E002B00D023
:1057C000BFE520231CAAD37623789DE5A246129339
:1057D00010242B0023431C00A30600D49DE30722C2
:1057E0000F9B0733934319000CC90C920D930123AF
:1057F0000F9100221CA9CA760798421C00D1C6E06E
:1058000080222100914388460C990D9A0D00154382
:1058100000D0BBE0002801D000F0E4FE002B00D057
:1058200034E301331A0022400A9256AE234200D0DC
:10583000C0E30A9A07991CABDB7E06928A4200DA23
:10584000069100220E92189213921492002B00D10E
:10585000C9E5069A01320692C5E52A001293102383
:105860001A43A246904643469B0600D44BE30723C7
:105870000F9C07349C43220018CA0C930D940F927E
:105880004346DC4C23401C000023B2E708231D43A1
:10589000237839E52A00129310231A43A246904632
:1058A00043469B0600D443E307230F9C07349C43E5
:1058B00001339C46A444634622680F9363680C92AC
:1058C0000D93002B00DA3EE3079B4446013307D0DB
:1058D00080239C430C9A0D9B1100194300D1D0E208
:1058E0000C9A0D9B002B00D08CE1092A00D989E18C
:1058F00063220C9B3DA930338B5401230A931CABCC
:10590000E7269C46A046664493E723786C2B01D19A
:1059100000F0DBFC10221543F6E42378682B01D15C
:1059200000F0B4FC40221543EEE40F9BA24604CBEA
:1059300002240C9200220D922A00302122431400EE
:1059400023AA11704831517078220F93AA4B1292FA
:105950001D9302234DE72B00A2469B0600D53EE394
:105960002B00DB0601D500F044FE2B005B0601D5C1
:1059700000F0F4FE2B009B0501D400F03AFE0F9CD2
:10598000099A08CC56461A700F94A8E54446012B94
:10599000A6D056AE022B00D10FE10723A046B94690
:1059A0009C460C9A0D9B5F07D5086146D8082F438B
:1059B00003003800114034003031013E3A003170AC
:1059C0001843F0D1250044464F460C920D93E20750
:1059D00000D453E1302900D150E13023013E023D93
:1059E000337056AB5B1B2E000A9322E7129B652B8C
:1059F00000DC21E61698179900220023FAF70AFD29
:105A0000002800D196E17D4B01343B6001237B608F
:105A10002B9B2C94079301332B93072B01DD00F074
:105A2000A9FD0837249B159A934200DBB4E21C9B26
:105A30003B601B9B9C467B602B9B6444079301331C
:105A40002C942B93072B01DD00F027FC0837159BC6
:105A50005D1E002D00DC20E5694A2B9B9146102D30
:105A600001DC00F098FD0B983A00210010264C460E
:105A70005F46814605E00832103D102D01DC00F044
:105A800086FD10310133146056602C912B93072B47
:105A9000F1DD494638002AAA03F096FB002801D020
:105AA00000F0E9FE2C992B9B2DAAE5E7089B069AAE
:105AB0009D1A002D00DCD8E4514A2B9B9146102DF5
:105AC00026DD3A0021000B9F4C46B1465E4603E0BE
:105AD000103D0832102D16DD1020103101331460F6
